:020000020000FC
:040000000C9420003C
:10002C000C9418000F930FB70F9313950F910FBFEC
:10003C000F91189540E04AB94FEF44B90FEF0DBF3F
:10004C0008E00EBF04EF0093890004E200938800DF
:10005C0000E0009380000CE000938100789421E094
:10006C003BB1303051F031FD0C94CB0030FD0C9491
:10007C00D3000C9475000C948E0024FD0C94C200DB
:10008C000C94B10092D00C9436000C944B0037FDBC
:10009C0008C036FD0C94590035FD0C945C000C9492
:1000AC0041000C94CB0038600C94410034600C94EB
:1000BC00410020FD0C944D0037FD08C036FD0C941A
:1000CC006F0035FD0C9472000C944D0030610C9453
:1000DC0041000E94CB00D6CF34600C94410021FD2E
:1000EC000C945F0020FD0C944D0037FD0C948600A1
:1000FC0036FD0C94890035FD0C948C000C945F003B
:10010C0030610C94410038600C9441000C94CB008D
:10011C0034FD0C94990033FD0C94A10032FD0C9429
:10012C00A9000C944300206121602D7F2B7F2F7B35
:10013C003CD00C944300206122602E7F2B7F2F7BC0
:10014C0034D00C944300206124602E7F2D7F2F7BB4
:10015C002CD00C9443001B5F153021F01A3039F071
:10016C000C94C00026FD206220D00C94C0002F7D82
:10017C002F7B277F0C94480010E02061277F15D03F
:10018C001395133011F00C94C60010E020642F7EF0
:10019C00286050610AD00C94B10010E02F7B2F7EA8
:1001AC00277F3E7F5F7E0C94480002D055B908959E
:1001BC0026FD506126FF5F7E25FD506225FF5F7D89
:1001CC0020FD0C94EF0021FD0C94F50022FD0C9405
:1001DC00FB005E7F5D7F5B7F577F0C94010151605C
:1001EC005D7F5B7F577F0C9401015E7F52605B7F6C
:0801FC00577F0C9401010895E6
:00000001FF
